{
  "_format": "hh-sol-artifact-1",
  "contractName": "ERC721TokenFactory",
  "sourceName": "contracts/ERC721Token.sol",
  "abi": [
    {
      "inputs": [
        {
          "internalType": "address",
          "name": "initialOwner",
          "type": "address"
        },
        {
          "internalType": "string",
          "name": "_name",
          "type": "string"
        },
        {
          "internalType": "string",
          "name": "_symbol",
          "type": "string"
        }
      ],
      "name": "createNewNFT",
      "outputs": [],
      "stateMutability": "nonpayable",
      "type": "function"
    },
    {
      "inputs": [
        {
          "internalType": "uint256",
          "name": "",
          "type": "uint256"
        }
      ],
      "name": "deployedTokens",
      "outputs": [
        {
          "internalType": "address",
          "name": "",
          "type": "address"
        }
      ],
      "stateMutability": "view",
      "type": "function"
    },
    {
      "inputs": [],
      "name": "getDeployedNFTs",
      "outputs": [
        {
          "internalType": "address[]",
          "name": "",
          "type": "address[]"
        }
      ],
      "stateMutability": "view",
      "type": "function"
    }
  ],
  "bytecode": "0x6080604052348015600f57600080fd5b506136dd8061001f6000396000f3fe608060405234801561001057600080fd5b50600436106100415760003560e01c80634832fafc14610046578063b8889e6414610062578063ec81aadb14610080575b600080fd5b610060600480360381019061005b91906103e7565b6100b0565b005b61006a610155565b6040516100779190610530565b60405180910390f35b61009a60048036038101906100959190610588565b6101e3565b6040516100a791906105c4565b60405180910390f35b60008383836040516100c190610222565b6100cd9392919061065e565b604051809103906000f0801580156100e9573d6000803e3d6000fd5b5090506000819080600181540180825580915050600190039060005260206000200160009091909190916101000a81548173ffffffffffffffffffffffffffffffffffffffff021916908373ffffffffffffffffffffffffffffffffffffffff16021790555050505050565b606060008054806020026020016040519081016040528092919081815260200182805480156101d957602002820191906000526020600020905b8160009054906101000a900473ffffffffffffffffffffffffffffffffffffffff1673ffffffffffffffffffffffffffffffffffffffff168152602001906001019080831161018f575b5050505050905090565b600081815481106101f357600080fd5b906000526020600020016000915054906101000a900473ffffffffffffffffffffffffffffffffffffffff1681565b613004806106a483390190565b6000604051905090565b600080fd5b600080fd5b600073ffffffffffffffffffffffffffffffffffffffff82169050919050565b600061026e82610243565b9050919050565b61027e81610263565b811461028957600080fd5b50565b60008135905061029b81610275565b92915050565b600080fd5b600080fd5b6000601f19601f8301169050919050565b7f4e487b7100000000000000000000000000000000000000000000000000000000600052604160045260246000fd5b6102f4826102ab565b810181811067ffffffffffffffff82111715610313576103126102bc565b5b80604052505050565b600061032661022f565b905061033282826102eb565b919050565b600067ffffffffffffffff821115610352576103516102bc565b5b61035b826102ab565b9050602081019050919050565b82818337600083830152505050565b600061038a61038584610337565b61031c565b9050828152602081018484840111156103a6576103a56102a6565b5b6103b1848285610368565b509392505050565b600082601f8301126103ce576103cd6102a1565b5b81356103de848260208601610377565b91505092915050565b600080600060608486031215610400576103ff610239565b5b600061040e8682870161028c565b935050602084013567ffffffffffffffff81111561042f5761042e61023e565b5b61043b868287016103b9565b925050604084013567ffffffffffffffff81111561045c5761045b61023e565b5b610468868287016103b9565b9150509250925092565b600081519050919050565b600082825260208201905092915050565b6000819050602082019050919050565b6104a781610263565b82525050565b60006104b9838361049e565b60208301905092915050565b6000602082019050919050565b60006104dd82610472565b6104e7818561047d565b93506104f28361048e565b8060005b8381101561052357815161050a88826104ad565b9750610515836104c5565b9250506001810190506104f6565b5085935050505092915050565b6000602082019050818103600083015261054a81846104d2565b905092915050565b6000819050919050565b61056581610552565b811461057057600080fd5b50565b6000813590506105828161055c565b92915050565b60006020828403121561059e5761059d610239565b5b60006105ac84828501610573565b91505092915050565b6105be81610263565b82525050565b60006020820190506105d960008301846105b5565b92915050565b600081519050919050565b600082825260208201905092915050565b60005b838110156106195780820151818401526020810190506105fe565b60008484015250505050565b6000610630826105df565b61063a81856105ea565b935061064a8185602086016105fb565b610653816102ab565b840191505092915050565b600060608201905061067360008301866105b5565b81810360208301526106858185610625565b905081810360408301526106998184610625565b905094935050505056fe608060405234801561001057600080fd5b506040516130043803806130048339818101604052810190610032919061037a565b82828281600090816100449190610626565b5080600190816100549190610626565b505050600073ffffffffffffffffffffffffffffffffffffffff168173ffffffffffffffffffffffffffffffffffffffff16036100c95760006040517f1e4fbdf70000000000000000000000000000000000000000000000000000000081526004016100c09190610707565b60405180910390fd5b6100d8816100e160201b60201c565b50505050610722565b6000600660019054906101000a900473ffffffffffffffffffffffffffffffffffffffff16905081600660016101000a81548173ffffffffffffffffffffffffffffffffffffffff021916908373ffffffffffffffffffffffffffffffffffffffff1602179055508173ffffffffffffffffffffffffffffffffffffffff168173ffffffffffffffffffffffffffffffffffffffff167f8be0079c531659141344cd1fd0a4f28419497f9722a3daafe3b4186f6b6457e060405160405180910390a35050565b6000604051905090565b600080fd5b600080fd5b600073ffffffffffffffffffffffffffffffffffffffff82169050919050565b60006101e6826101bb565b9050919050565b6101f6816101db565b811461020157600080fd5b50565b600081519050610213816101ed565b92915050565b600080fd5b600080fd5b6000601f19601f8301169050919050565b7f4e487b7100000000000000000000000000000000000000000000000000000000600052604160045260246000fd5b61026c82610223565b810181811067ffffffffffffffff8211171561028b5761028a610234565b5b80604052505050565b600061029e6101a7565b90506102aa8282610263565b919050565b600067ffffffffffffffff8211156102ca576102c9610234565b5b6102d382610223565b9050602081019050919050565b60005b838110156102fe5780820151818401526020810190506102e3565b60008484015250505050565b600061031d610318846102af565b610294565b9050828152602081018484840111156103395761033861021e565b5b6103448482856102e0565b509392505050565b600082601f83011261036157610360610219565b5b815161037184826020860161030a565b91505092915050565b600080600060608486031215610393576103926101b1565b5b60006103a186828701610204565b935050602084015167ffffffffffffffff8111156103c2576103c16101b6565b5b6103ce8682870161034c565b925050604084015167ffffffffffffffff8111156103ef576103ee6101b6565b5b6103fb8682870161034c565b9150509250925092565b600081519050919050565b7f4e487b7100000000000000000000000000000000000000000000000000000000600052602260045260246000fd5b6000600282049050600182168061045757607f821691505b60208210810361046a57610469610410565b5b50919050565b60008190508160005260206000209050919050565b60006020601f8301049050919050565b600082821b905092915050565b6000600883026104d27fffffffffffffffffffffffffffffffffffffffffffffffffffffffffffffffff82610495565b6104dc8683610495565b95508019841693508086168417925050509392505050565b6000819050919050565b6000819050919050565b600061052361051e610519846104f4565b6104fe565b6104f4565b9050919050565b6000819050919050565b61053d83610508565b6105516105498261052a565b8484546104a2565b825550505050565b600090565b610566610559565b610571818484610534565b505050565b5b818110156105955761058a60008261055e565b600181019050610577565b5050565b601f8211156105da576105ab81610470565b6105b484610485565b810160208510156105c3578190505b6105d76105cf85610485565b830182610576565b50505b505050565b600082821c905092915050565b60006105fd600019846008026105df565b1980831691505092915050565b600061061683836105ec565b9150826002028217905092915050565b61062f82610405565b67ffffffffffffffff81111561064857610647610234565b5b610652825461043f565b61065d828285610599565b600060209050601f831160018114610690576000841561067e578287015190505b610688858261060a565b8655506106f0565b601f19841661069e86610470565b60005b828110156106c6578489015182556001820191506020850194506020810190506106a1565b868310156106e357848901516106df601f8916826105ec565b8355505b6001600288020188555050505b505050505050565b610701816101db565b82525050565b600060208201905061071c60008301846106f8565b92915050565b6128d3806107316000396000f3fe608060405234801561001057600080fd5b50600436106101375760003560e01c806370a08231116100b8578063a22cb4651161007c578063a22cb46514610302578063b88d4fde1461031e578063c87b56dd1461033a578063d204c45e1461036a578063e985e9c514610386578063f2fde38b146103b657610137565b806370a0823114610282578063715018a6146102b25780638456cb59146102bc5780638da5cb5b146102c657806395d89b41146102e457610137565b80633f4ba83a116100ff5780633f4ba83a146101f257806342842e0e146101fc57806342966c68146102185780635c975abb146102345780636352211e1461025257610137565b806301ffc9a71461013c57806306fdde031461016c578063081812fc1461018a578063095ea7b3146101ba57806323b872dd146101d6575b600080fd5b61015660048036038101906101519190611d2b565b6103d2565b6040516101639190611d73565b60405180910390f35b6101746103e4565b6040516101819190611e1e565b60405180910390f35b6101a4600480360381019061019f9190611e76565b610476565b6040516101b19190611ee4565b60405180910390f35b6101d460048036038101906101cf9190611f2b565b610492565b005b6101f060048036038101906101eb9190611f6b565b6104a8565b005b6101fa6105aa565b005b61021660048036038101906102119190611f6b565b6105bc565b005b610232600480360381019061022d9190611e76565b6105dc565b005b61023c6105f3565b6040516102499190611d73565b60405180910390f35b61026c60048036038101906102679190611e76565b61060a565b6040516102799190611ee4565b60405180910390f35b61029c60048036038101906102979190611fbe565b61061c565b6040516102a99190611ffa565b60405180910390f35b6102ba6106d6565b005b6102c46106ea565b005b6102ce6106fc565b6040516102db9190611ee4565b60405180910390f35b6102ec610726565b6040516102f99190611e1e565b60405180910390f35b61031c60048036038101906103179190612041565b6107b8565b005b610338600480360381019061033391906121b6565b6107ce565b005b610354600480360381019061034f9190611e76565b6107f3565b6040516103619190611e1e565b60405180910390f35b610384600480360381019061037f91906122da565b610805565b005b6103a0600480360381019061039b9190612336565b610845565b6040516103ad9190611d73565b60405180910390f35b6103d060048036038101906103cb9190611fbe565b6108d9565b005b60006103dd8261095f565b9050919050565b6060600080546103f3906123a5565b80601f016020809104026020016040519081016040528092919081815260200182805461041f906123a5565b801561046c5780601f106104415761010080835404028352916020019161046c565b820191906000526020600020905b81548152906001019060200180831161044f57829003601f168201915b5050505050905090565b6000610481826109c0565b5061048b82610a48565b9050919050565b6104a4828261049f610a85565b610a8d565b5050565b600073ffffffffffffffffffffffffffffffffffffffff168273ffffffffffffffffffffffffffffffffffffffff160361051a5760006040517f64a0ae920000000000000000000000000000000000000000000000000000000081526004016105119190611ee4565b60405180910390fd5b600061052e8383610529610a85565b610a9f565b90508373ffffffffffffffffffffffffffffffffffffffff168173ffffffffffffffffffffffffffffffffffffffff16146105a4578382826040517f64283d7b00000000000000000000000000000000000000000000000000000000815260040161059b939291906123d6565b60405180910390fd5b50505050565b6105b2610ab5565b6105ba610b3c565b565b6105d7838383604051806020016040528060008152506107ce565b505050565b6105ef6000826105ea610a85565b610a9f565b5050565b6000600660009054906101000a900460ff16905090565b6000610615826109c0565b9050919050565b60008073ffffffffffffffffffffffffffffffffffffffff168273ffffffffffffffffffffffffffffffffffffffff160361068f5760006040517f89c62b640000000000000000000000000000000000000000000000000000000081526004016106869190611ee4565b60405180910390fd5b600360008373ffffffffffffffffffffffffffffffffffffffff1673ffffffffffffffffffffffffffffffffffffffff168152602001908152602001600020549050919050565b6106de610ab5565b6106e86000610b9f565b565b6106f2610ab5565b6106fa610c65565b565b6000600660019054906101000a900473ffffffffffffffffffffffffffffffffffffffff16905090565b606060018054610735906123a5565b80601f0160208091040260200160405190810160405280929190818152602001828054610761906123a5565b80156107ae5780601f10610783576101008083540402835291602001916107ae565b820191906000526020600020905b81548152906001019060200180831161079157829003601f168201915b5050505050905090565b6107ca6107c3610a85565b8383610cc8565b5050565b6107d98484846104a8565b6107ed6107e4610a85565b85858585610e37565b50505050565b60606107fe82610fe8565b9050919050565b61080d610ab5565b60006008549050600860008154809291906108279061243c565b919050555061083683826110fb565b6108408183611119565b505050565b6000600560008473ffffffffffffffffffffffffffffffffffffffff1673ffffffffffffffffffffffffffffffffffffffff16815260200190815260200160002060008373ffffffffffffffffffffffffffffffffffffffff1673ffffffffffffffffffffffffffffffffffffffff16815260200190815260200160002060009054906101000a900460ff16905092915050565b6108e1610ab5565b600073ffffffffffffffffffffffffffffffffffffffff168173ffffffffffffffffffffffffffffffffffffffff16036109535760006040517f1e4fbdf700000000000000000000000000000000000000000000000000000000815260040161094a9190611ee4565b60405180910390fd5b61095c81610b9f565b50565b6000634906490660e01b7bffffffffffffffffffffffffffffffffffffffffffffffffffffffff1916827bffffffffffffffffffffffffffffffffffffffffffffffffffffffff191614806109b957506109b882611175565b5b9050919050565b6000806109cc83611257565b9050600073ffffffffffffffffffffffffffffffffffffffff168173ffffffffffffffffffffffffffffffffffffffff1603610a3f57826040517f7e273289000000000000000000000000000000000000000000000000000000008152600401610a369190611ffa565b60405180910390fd5b80915050919050565b60006004600083815260200190815260200160002060009054906101000a900473ffffffffffffffffffffffffffffffffffffffff169050919050565b600033905090565b610a9a8383836001611294565b505050565b6000610aac848484611459565b90509392505050565b610abd610a85565b73ffffffffffffffffffffffffffffffffffffffff16610adb6106fc565b73ffffffffffffffffffffffffffffffffffffffff1614610b3a57610afe610a85565b6040517f118cdaa7000000000000000000000000000000000000000000000000000000008152600401610b319190611ee4565b60405180910390fd5b565b610b44611477565b6000600660006101000a81548160ff0219169083151502179055507f5db9ee0a495bf2e6ff9c91a7834c1ba4fdd244a5e8aa4e537bd38aeae4b073aa610b88610a85565b604051610b959190611ee4565b60405180910390a1565b6000600660019054906101000a900473ffffffffffffffffffffffffffffffffffffffff16905081600660016101000a81548173ffffffffffffffffffffffffffffffffffffffff021916908373ffffffffffffffffffffffffffffffffffffffff1602179055508173ffffffffffffffffffffffffffffffffffffffff168173ffffffffffffffffffffffffffffffffffffffff167f8be0079c531659141344cd1fd0a4f28419497f9722a3daafe3b4186f6b6457e060405160405180910390a35050565b610c6d6114b7565b6001600660006101000a81548160ff0219169083151502179055507f62e78cea01bee320cd4e420270b5ea74000d11b0c9f74754ebdbfc544b05a258610cb1610a85565b604051610cbe9190611ee4565b60405180910390a1565b600073ffffffffffffffffffffffffffffffffffffffff168273ffffffffffffffffffffffffffffffffffffffff1603610d3957816040517f5b08ba18000000000000000000000000000000000000000000000000000000008152600401610d309190611ee4565b60405180910390fd5b80600560008573ffffffffffffffffffffffffffffffffffffffff1673ffffffffffffffffffffffffffffffffffffffff16815260200190815260200160002060008473ffffffffffffffffffffffffffffffffffffffff1673ffffffffffffffffffffffffffffffffffffffff16815260200190815260200160002060006101000a81548160ff0219169083151502179055508173ffffffffffffffffffffffffffffffffffffffff168373ffffffffffffffffffffffffffffffffffffffff167f17307eab39ab6107e8899845ad3d59bd9653f200f220920489ca2b5937696c3183604051610e2a9190611d73565b60405180910390a3505050565b60008373ffffffffffffffffffffffffffffffffffffffff163b1115610fe1578273ffffffffffffffffffffffffffffffffffffffff1663150b7a02868685856040518563ffffffff1660e01b8152600401610e9694939291906124d9565b6020604051808303816000875af1925050508015610ed257506040513d601f19601f82011682018060405250810190610ecf919061253a565b60015b610f56573d8060008114610f02576040519150601f19603f3d011682016040523d82523d6000602084013e610f07565b606091505b506000815103610f4e57836040517f64a0ae92000000000000000000000000000000000000000000000000000000008152600401610f459190611ee4565b60405180910390fd5b805181602001fd5b63150b7a0260e01b7bffffffffffffffffffffffffffffffffffffffffffffffffffffffff1916817bffffffffffffffffffffffffffffffffffffffffffffffffffffffff191614610fdf57836040517f64a0ae92000000000000000000000000000000000000000000000000000000008152600401610fd69190611ee4565b60405180910390fd5b505b5050505050565b6060610ff3826109c0565b506000600760008481526020019081526020016000208054611014906123a5565b80601f0160208091040260200160405190810160405280929190818152602001828054611040906123a5565b801561108d5780601f106110625761010080835404028352916020019161108d565b820191906000526020600020905b81548152906001019060200180831161107057829003601f168201915b50505050509050600061109e6114f8565b905060008151036110b35781925050506110f6565b6000825111156110e85780826040516020016110d09291906125a3565b604051602081830303815290604052925050506110f6565b6110f18461150f565b925050505b919050565b611115828260405180602001604052806000815250611578565b5050565b806007600084815260200190815260200160002090816111399190612773565b507ff8e1a15aba9398e019f0b49df1a4fde98ee17ae345cb5f6b5e2c27f5033e8ce7826040516111699190611ffa565b60405180910390a15050565b60007f80ac58cd000000000000000000000000000000000000000000000000000000007bffffffffffffffffffffffffffffffffffffffffffffffffffffffff1916827bffffffffffffffffffffffffffffffffffffffffffffffffffffffff1916148061124057507f5b5e139f000000000000000000000000000000000000000000000000000000007bffffffffffffffffffffffffffffffffffffffffffffffffffffffff1916827bffffffffffffffffffffffffffffffffffffffffffffffffffffffff1916145b80611250575061124f8261159c565b5b9050919050565b60006002600083815260200190815260200160002060009054906101000a900473ffffffffffffffffffffffffffffffffffffffff169050919050565b80806112cd5750600073ffffffffffffffffffffffffffffffffffffffff168273ffffffffffffffffffffffffffffffffffffffff1614155b156114015760006112dd846109c0565b9050600073ffffffffffffffffffffffffffffffffffffffff168373ffffffffffffffffffffffffffffffffffffffff161415801561134857508273ffffffffffffffffffffffffffffffffffffffff168173ffffffffffffffffffffffffffffffffffffffff1614155b801561135b57506113598184610845565b155b1561139d57826040517fa9fbf51f0000000000000000000000000000000000000000000000000000000081526004016113949190611ee4565b60405180910390fd5b81156113ff57838573ffffffffffffffffffffffffffffffffffffffff168273ffffffffffffffffffffffffffffffffffffffff167f8c5be1e5ebec7d5bd14f71427d1e84f3dd0314c0f7b2291e5b200ac8c7c3b92560405160405180910390a45b505b836004600085815260200190815260200160002060006101000a81548173ffffffffffffffffffffffffffffffffffffffff021916908373ffffffffffffffffffffffffffffffffffffffff16021790555050505050565b60006114636114b7565b61146e848484611606565b90509392505050565b61147f6105f3565b6114b5576040517f8dfc202b00000000000000000000000000000000000000000000000000000000815260040160405180910390fd5b565b6114bf6105f3565b156114f6576040517fd93c066500000000000000000000000000000000000000000000000000000000815260040160405180910390fd5b565b606060405180602001604052806000815250905090565b606061151a826109c0565b5060006115256114f8565b905060008151116115455760405180602001604052806000815250611570565b8061154f84611820565b6040516020016115609291906125a3565b6040516020818303038152906040525b915050919050565b61158283836118ee565b61159761158d610a85565b6000858585610e37565b505050565b60007f01ffc9a7000000000000000000000000000000000000000000000000000000007bffffffffffffffffffffffffffffffffffffffffffffffffffffffff1916827bffffffffffffffffffffffffffffffffffffffffffffffffffffffff1916149050919050565b60008061161284611257565b9050600073ffffffffffffffffffffffffffffffffffffffff168373ffffffffffffffffffffffffffffffffffffffff1614611654576116538184866119e7565b5b600073ffffffffffffffffffffffffffffffffffffffff168173ffffffffffffffffffffffffffffffffffffffff16146116e557611696600085600080611294565b6001600360008373ffffffffffffffffffffffffffffffffffffffff1673ffffffffffffffffffffffffffffffffffffffff168152602001908152602001600020600082825403925050819055505b600073ffffffffffffffffffffffffffffffffffffffff168573ffffffffffffffffffffffffffffffffffffffff1614611768576001600360008773ffffffffffffffffffffffffffffffffffffffff1673ffffffffffffffffffffffffffffffffffffffff168152602001908152602001600020600082825401925050819055505b846002600086815260200190815260200160002060006101000a81548173ffffffffffffffffffffffffffffffffffffffff021916908373ffffffffffffffffffffffffffffffffffffffff160217905550838573ffffffffffffffffffffffffffffffffffffffff168273ffffffffffffffffffffffffffffffffffffffff167fddf252ad1be2c89b69c2b068fc378daa952ba7f163c4a11628f55a4df523b3ef60405160405180910390a4809150509392505050565b60606000600161182f84611aab565b01905060008167ffffffffffffffff81111561184e5761184d61208b565b5b6040519080825280601f01601f1916602001820160405280156118805781602001600182028036833780820191505090505b509050600082602001820190505b6001156118e3578080600190039150507f3031323334353637383961626364656600000000000000000000000000000000600a86061a8153600a85816118d7576118d6612845565b5b0494506000850361188e575b819350505050919050565b600073ffffffffffffffffffffffffffffffffffffffff168273ffffffffffffffffffffffffffffffffffffffff16036119605760006040517f64a0ae920000000000000000000000000000000000000000000000000000000081526004016119579190611ee4565b60405180910390fd5b600061196e83836000610a9f565b9050600073ffffffffffffffffffffffffffffffffffffffff168173ffffffffffffffffffffffffffffffffffffffff16146119e25760006040517f73c6ac6e0000000000000000000000000000000000000000000000000000000081526004016119d99190611ee4565b60405180910390fd5b505050565b6119f2838383611bfe565b611aa657600073ffffffffffffffffffffffffffffffffffffffff168373ffffffffffffffffffffffffffffffffffffffff1603611a6757806040517f7e273289000000000000000000000000000000000000000000000000000000008152600401611a5e9190611ffa565b60405180910390fd5b81816040517f177e802f000000000000000000000000000000000000000000000000000000008152600401611a9d929190612874565b60405180910390fd5b505050565b600080600090507a184f03e93ff9f4daa797ed6e38ed64bf6a1f0100000000000000008310611b09577a184f03e93ff9f4daa797ed6e38ed64bf6a1f0100000000000000008381611aff57611afe612845565b5b0492506040810190505b6d04ee2d6d415b85acef81000000008310611b46576d04ee2d6d415b85acef81000000008381611b3c57611b3b612845565b5b0492506020810190505b662386f26fc100008310611b7557662386f26fc100008381611b6b57611b6a612845565b5b0492506010810190505b6305f5e1008310611b9e576305f5e1008381611b9457611b93612845565b5b0492506008810190505b6127108310611bc3576127108381611bb957611bb8612845565b5b0492506004810190505b60648310611be65760648381611bdc57611bdb612845565b5b0492506002810190505b600a8310611bf5576001810190505b80915050919050565b60008073ffffffffffffffffffffffffffffffffffffffff168373ffffffffffffffffffffffffffffffffffffffff1614158015611cb657508273ffffffffffffffffffffffffffffffffffffffff168473ffffffffffffffffffffffffffffffffffffffff161480611c775750611c768484610845565b5b80611cb557508273ffffffffffffffffffffffffffffffffffffffff16611c9d83610a48565b73ffffffffffffffffffffffffffffffffffffffff16145b5b90509392505050565b6000604051905090565b600080fd5b600080fd5b60007fffffffff0000000000000000000000000000000000000000000000000000000082169050919050565b611d0881611cd3565b8114611d1357600080fd5b50565b600081359050611d2581611cff565b92915050565b600060208284031215611d4157611d40611cc9565b5b6000611d4f84828501611d16565b91505092915050565b60008115159050919050565b611d6d81611d58565b82525050565b6000602082019050611d886000830184611d64565b92915050565b600081519050919050565b600082825260208201905092915050565b60005b83811015611dc8578082015181840152602081019050611dad565b60008484015250505050565b6000601f19601f8301169050919050565b6000611df082611d8e565b611dfa8185611d99565b9350611e0a818560208601611daa565b611e1381611dd4565b840191505092915050565b60006020820190508181036000830152611e388184611de5565b905092915050565b6000819050919050565b611e5381611e40565b8114611e5e57600080fd5b50565b600081359050611e7081611e4a565b92915050565b600060208284031215611e8c57611e8b611cc9565b5b6000611e9a84828501611e61565b91505092915050565b600073ffffffffffffffffffffffffffffffffffffffff82169050919050565b6000611ece82611ea3565b9050919050565b611ede81611ec3565b82525050565b6000602082019050611ef96000830184611ed5565b92915050565b611f0881611ec3565b8114611f1357600080fd5b50565b600081359050611f2581611eff565b92915050565b60008060408385031215611f4257611f41611cc9565b5b6000611f5085828601611f16565b9250506020611f6185828601611e61565b9150509250929050565b600080600060608486031215611f8457611f83611cc9565b5b6000611f9286828701611f16565b9350506020611fa386828701611f16565b9250506040611fb486828701611e61565b9150509250925092565b600060208284031215611fd457611fd3611cc9565b5b6000611fe284828501611f16565b91505092915050565b611ff481611e40565b82525050565b600060208201905061200f6000830184611feb565b92915050565b61201e81611d58565b811461202957600080fd5b50565b60008135905061203b81612015565b92915050565b6000806040838503121561205857612057611cc9565b5b600061206685828601611f16565b92505060206120778582860161202c565b9150509250929050565b600080fd5b600080fd5b7f4e487b7100000000000000000000000000000000000000000000000000000000600052604160045260246000fd5b6120c382611dd4565b810181811067ffffffffffffffff821117156120e2576120e161208b565b5b80604052505050565b60006120f5611cbf565b905061210182826120ba565b919050565b600067ffffffffffffffff8211156121215761212061208b565b5b61212a82611dd4565b9050602081019050919050565b82818337600083830152505050565b600061215961215484612106565b6120eb565b90508281526020810184848401111561217557612174612086565b5b612180848285612137565b509392505050565b600082601f83011261219d5761219c612081565b5b81356121ad848260208601612146565b91505092915050565b600080600080608085870312156121d0576121cf611cc9565b5b60006121de87828801611f16565b94505060206121ef87828801611f16565b935050604061220087828801611e61565b925050606085013567ffffffffffffffff81111561222157612220611cce565b5b61222d87828801612188565b91505092959194509250565b600067ffffffffffffffff8211156122545761225361208b565b5b61225d82611dd4565b9050602081019050919050565b600061227d61227884612239565b6120eb565b90508281526020810184848401111561229957612298612086565b5b6122a4848285612137565b509392505050565b600082601f8301126122c1576122c0612081565b5b81356122d184826020860161226a565b91505092915050565b600080604083850312156122f1576122f0611cc9565b5b60006122ff85828601611f16565b925050602083013567ffffffffffffffff8111156123205761231f611cce565b5b61232c858286016122ac565b9150509250929050565b6000806040838503121561234d5761234c611cc9565b5b600061235b85828601611f16565b925050602061236c85828601611f16565b9150509250929050565b7f4e487b7100000000000000000000000000000000000000000000000000000000600052602260045260246000fd5b600060028204905060018216806123bd57607f821691505b6020821081036123d0576123cf612376565b5b50919050565b60006060820190506123eb6000830186611ed5565b6123f86020830185611feb565b6124056040830184611ed5565b949350505050565b7f4e487b7100000000000000000000000000000000000000000000000000000000600052601160045260246000fd5b600061244782611e40565b91507fffffffffffffffffffffffffffffffffffffffffffffffffffffffffffffffff82036124795761247861240d565b5b600182019050919050565b600081519050919050565b600082825260208201905092915050565b60006124ab82612484565b6124b5818561248f565b93506124c5818560208601611daa565b6124ce81611dd4565b840191505092915050565b60006080820190506124ee6000830187611ed5565b6124fb6020830186611ed5565b6125086040830185611feb565b818103606083015261251a81846124a0565b905095945050505050565b60008151905061253481611cff565b92915050565b6000602082840312156125505761254f611cc9565b5b600061255e84828501612525565b91505092915050565b600081905092915050565b600061257d82611d8e565b6125878185612567565b9350612597818560208601611daa565b80840191505092915050565b60006125af8285612572565b91506125bb8284612572565b91508190509392505050565b60008190508160005260206000209050919050565b60006020601f8301049050919050565b600082821b905092915050565b6000600883026126297fffffffffffffffffffffffffffffffffffffffffffffffffffffffffffffffff826125ec565b61263386836125ec565b95508019841693508086168417925050509392505050565b6000819050919050565b600061267061266b61266684611e40565b61264b565b611e40565b9050919050565b6000819050919050565b61268a83612655565b61269e61269682612677565b8484546125f9565b825550505050565b600090565b6126b36126a6565b6126be818484612681565b505050565b5b818110156126e2576126d76000826126ab565b6001810190506126c4565b5050565b601f821115612727576126f8816125c7565b612701846125dc565b81016020851015612710578190505b61272461271c856125dc565b8301826126c3565b50505b505050565b600082821c905092915050565b600061274a6000198460080261272c565b1980831691505092915050565b60006127638383612739565b9150826002028217905092915050565b61277c82611d8e565b67ffffffffffffffff8111156127955761279461208b565b5b61279f82546123a5565b6127aa8282856126e6565b600060209050601f8311600181146127dd57600084156127cb578287015190505b6127d58582612757565b86555061283d565b601f1984166127eb866125c7565b60005b82811015612813578489015182556001820191506020850194506020810190506127ee565b86831015612830578489015161282c601f891682612739565b8355505b6001600288020188555050505b505050505050565b7f4e487b7100000000000000000000000000000000000000000000000000000000600052601260045260246000fd5b60006040820190506128896000830185611ed5565b6128966020830184611feb565b939250505056fea2646970667358221220336be2d1471381368f9c203ae9d52a2bb1a6da75c4377485b302d9a4cd2fa12464736f6c634300081c0033a2646970667358221220baf628ed010557d193504daeba03f58f2a8aa101177422b5cf90bc35f158033c64736f6c634300081c0033",
  "linkReferences": {},
  "deployedLinkReferences": {}
}